{
  "_format": "hh-sol-artifact-1",
  "contractName": "Bridge",
  "sourceName": "contracts/Bridge.sol",
  "abi": [
    {
      "inputs": [
        {
          "internalType": "address[]",
          "name": "_signers",
          "type": "address[]"
        },
        {
          "internalType": "uint8",
          "name": "_minThreshold",
          "type": "uint8"
        }
      ],
      "stateMutability": "nonpayable",
      "type": "constructor"
    },
    {
      "anonymous": false,
      "inputs": [
        {
          "indexed": false,
          "internalType": "address",
          "name": "token",
          "type": "address"
        },
        {
          "indexed": false,
          "internalType": "address",
          "name": "sender",
          "type": "address"
        },
        {
          "indexed": false,
          "internalType": "uint256",
          "name": "destination",
          "type": "uint256"
        },
        {
          "indexed": false,
          "internalType": "uint256",
          "name": "amount",
          "type": "uint256"
        }
      ],
      "name": "Deposit",
      "type": "event"
    },
    {
      "anonymous": false,
      "inputs": [
        {
          "indexed": false,
          "internalType": "uint256",
          "name": "version",
          "type": "uint256"
        },
        {
          "indexed": false,
          "internalType": "address[]",
          "name": "signers",
          "type": "address[]"
        },
        {
          "indexed": false,
          "internalType": "uint8",
          "name": "minThreshold",
          "type": "uint8"
        }
      ],
      "name": "RegisterSigners",
      "type": "event"
    },
    {
      "anonymous": false,
      "inputs": [
        {
          "indexed": false,
          "internalType": "address",
          "name": "asset",
          "type": "address"
        }
      ],
      "name": "RegisterStellarAsset",
      "type": "event"
    },
    {
      "anonymous": false,
      "inputs": [
        {
          "indexed": false,
          "internalType": "uint8",
          "name": "value",
          "type": "uint8"
        }
      ],
      "name": "SetPaused",
      "type": "event"
    },
    {
      "anonymous": false,
      "inputs": [
        {
          "indexed": false,
          "internalType": "bytes32",
          "name": "id",
          "type": "bytes32"
        },
        {
          "indexed": false,
          "internalType": "address",
          "name": "token",
          "type": "address"
        },
        {
          "indexed": false,
          "internalType": "address",
          "name": "recipient",
          "type": "address"
        },
        {
          "indexed": false,
          "internalType": "uint256",
          "name": "amount",
          "type": "uint256"
        }
      ],
      "name": "Withdraw",
      "type": "event"
    },
    {
      "inputs": [
        {
          "internalType": "address",
          "name": "token",
          "type": "address"
        },
        {
          "internalType": "uint256",
          "name": "destination",
          "type": "uint256"
        },
        {
          "internalType": "uint256",
          "name": "amount",
          "type": "uint256"
        }
      ],
      "name": "depositERC20",
      "outputs": [],
      "stateMutability": "nonpayable",
      "type": "function"
    },
    {
      "inputs": [
        {
          "internalType": "uint256",
          "name": "destination",
          "type": "uint256"
        }
      ],
      "name": "depositETH",
      "outputs": [],
      "stateMutability": "payable",
      "type": "function"
    },
    {
      "inputs": [
        {
          "internalType": "address",
          "name": "",
          "type": "address"
        }
      ],
      "name": "isStellarAsset",
      "outputs": [
        {
          "internalType": "bool",
          "name": "",
          "type": "bool"
        }
      ],
      "stateMutability": "view",
      "type": "function"
    },
    {
      "inputs": [],
      "name": "minThreshold",
      "outputs": [
        {
          "internalType": "uint8",
          "name": "",
          "type": "uint8"
        }
      ],
      "stateMutability": "view",
      "type": "function"
    },
    {
      "inputs": [],
      "name": "paused",
      "outputs": [
        {
          "internalType": "uint8",
          "name": "",
          "type": "uint8"
        }
      ],
      "stateMutability": "view",
      "type": "function"
    },
    {
      "inputs": [
        {
          "components": [
            {
              "internalType": "uint8",
              "name": "decimals",
              "type": "uint8"
            },
            {
              "internalType": "string",
              "name": "name",
              "type": "string"
            },
            {
              "internalType": "string",
              "name": "symbol",
              "type": "string"
            }
          ],
          "internalType": "struct RegisterStellarAssetRequest",
          "name": "request",
          "type": "tuple"
        },
        {
          "internalType": "bytes[]",
          "name": "signatures",
          "type": "bytes[]"
        },
        {
          "internalType": "uint8[]",
          "name": "indexes",
          "type": "uint8[]"
        }
      ],
      "name": "registerStellarAsset",
      "outputs": [],
      "stateMutability": "nonpayable",
      "type": "function"
    },
    {
      "inputs": [
        {
          "internalType": "bytes32",
          "name": "requestID",
          "type": "bytes32"
        }
      ],
      "name": "requestStatus",
      "outputs": [
        {
          "internalType": "bool",
          "name": "",
          "type": "bool"
        },
        {
          "internalType": "uint256",
          "name": "",
          "type": "uint256"
        }
      ],
      "stateMutability": "view",
      "type": "function"
    },
    {
      "inputs": [
        {
          "components": [
            {
              "internalType": "uint8",
              "name": "value",
              "type": "uint8"
            },
            {
              "internalType": "uint256",
              "name": "nonce",
              "type": "uint256"
            },
            {
              "internalType": "uint256",
              "name": "expiration",
              "type": "uint256"
            }
          ],
          "internalType": "struct SetPausedRequest",
          "name": "request",
          "type": "tuple"
        },
        {
          "internalType": "bytes[]",
          "name": "signatures",
          "type": "bytes[]"
        },
        {
          "internalType": "uint8[]",
          "name": "indexes",
          "type": "uint8[]"
        }
      ],
      "name": "setPaused",
      "outputs": [],
      "stateMutability": "nonpayable",
      "type": "function"
    },
    {
      "inputs": [
        {
          "internalType": "uint256",
          "name": "",
          "type": "uint256"
        }
      ],
      "name": "signers",
      "outputs": [
        {
          "internalType": "address",
          "name": "",
          "type": "address"
        }
      ],
      "stateMutability": "view",
      "type": "function"
    },
    {
      "inputs": [
        {
          "internalType": "address[]",
          "name": "_signers",
          "type": "address[]"
        },
        {
          "internalType": "uint8",
          "name": "_minThreshold",
          "type": "uint8"
        },
        {
          "internalType": "bytes[]",
          "name": "signatures",
          "type": "bytes[]"
        },
        {
          "internalType": "uint8[]",
          "name": "indexes",
          "type": "uint8[]"
        }
      ],
      "name": "updateSigners",
      "outputs": [],
      "stateMutability": "nonpayable",
      "type": "function"
    },
    {
      "inputs": [],
      "name": "version",
      "outputs": [
        {
          "internalType": "uint256",
          "name": "",
          "type": "uint256"
        }
      ],
      "stateMutability": "view",
      "type": "function"
    },
    {
      "inputs": [
        {
          "components": [
            {
              "internalType": "bytes32",
              "name": "id",
              "type": "bytes32"
            },
            {
              "internalType": "uint256",
              "name": "expiration",
              "type": "uint256"
            },
            {
              "internalType": "address",
              "name": "recipient",
              "type": "address"
            },
            {
              "internalType": "address",
              "name": "token",
              "type": "address"
            },
            {
              "internalType": "uint256",
              "name": "amount",
              "type": "uint256"
            }
          ],
          "internalType": "struct WithdrawERC20Request",
          "name": "request",
          "type": "tuple"
        },
        {
          "internalType": "bytes[]",
          "name": "signatures",
          "type": "bytes[]"
        },
        {
          "internalType": "uint8[]",
          "name": "indexes",
          "type": "uint8[]"
        }
      ],
      "name": "withdrawERC20",
      "outputs": [],
      "stateMutability": "nonpayable",
      "type": "function"
    },
    {
      "inputs": [
        {
          "components": [
            {
              "internalType": "bytes32",
              "name": "id",
              "type": "bytes32"
            },
            {
              "internalType": "uint256",
              "name": "expiration",
              "type": "uint256"
            },
            {
              "internalType": "address",
              "name": "recipient",
              "type": "address"
            },
            {
              "internalType": "uint256",
              "name": "amount",
              "type": "uint256"
            }
          ],
          "internalType": "struct WithdrawETHRequest",
          "name": "request",
          "type": "tuple"
        },
        {
          "internalType": "bytes[]",
          "name": "signatures",
          "type": "bytes[]"
        },
        {
          "internalType": "uint8[]",
          "name": "indexes",
          "type": "uint8[]"
        }
      ],
      "name": "withdrawETH",
      "outputs": [],
      "stateMutability": "nonpayable",
      "type": "function"
    }
  ],
  "bytecode": "0x60806040523480156200001157600080fd5b50604051620045d5380380620045d5833981016040819052620000349162000391565b818162000044600083836200004e565b5050505062000573565b6000825111620000975760405162461bcd60e51b815260206004820152600f60248201526e746f6f20666577207369676e65727360881b60448201526064015b60405180910390fd5b610100825110620000de5760405162461bcd60e51b815260206004820152601060248201526f746f6f206d616e79207369676e65727360801b60448201526064016200008e565b60028251620000ee9190620004dd565b8160ff1611620001415760405162461bcd60e51b815260206004820152601860248201527f6d696e207468726573686f6c6420697320746f6f206c6f77000000000000000060448201526064016200008e565b81518160ff161115620001975760405162461bcd60e51b815260206004820152601960248201527f6d696e207468726573686f6c6420697320746f6f20686967680000000000000060448201526064016200008e565b60015b82518160ff1610156200027857828160ff1681518110620001cb57634e487b7160e01b600052603260045260246000fd5b60200260200101516001600160a01b031683600183620001ec9190620004fe565b60ff16815181106200020e57634e487b7160e01b600052603260045260246000fd5b60200260200101516001600160a01b031610620002635760405162461bcd60e51b81526020600482015260126024820152711cda59db995c9cc81b9bdd081cdbdc9d195960721b60448201526064016200008e565b806200026f8162000524565b9150506200019a565b5081516200028e906000906020850190620002e1565b506001805460ff191660ff83161790556040517f5d291071bb8cb02c25b56ac7a404864bbf1b404850664208dc12952b59017a8a90620002d49085908590859062000479565b60405180910390a1505050565b82805482825590600052602060002090810192821562000339579160200282015b828111156200033957825182546001600160a01b0319166001600160a01b0390911617825560209092019160019091019062000302565b50620003479291506200034b565b5090565b5b808211156200034757600081556001016200034c565b80516001600160a01b03811681146200037a57600080fd5b919050565b805160ff811681146200037a57600080fd5b60008060408385031215620003a4578182fd5b82516001600160401b0380821115620003bb578384fd5b818501915085601f830112620003cf578384fd5b8151602082821115620003e657620003e66200055d565b8160051b604051601f19603f830116810181811086821117156200040e576200040e6200055d565b604052838152828101945085830182870184018b10156200042d578889fd5b8896505b848710156200045a57620004458162000362565b86526001969096019594830194830162000431565b5096506200046c90508782016200037f565b9450505050509250929050565b60006060820185835260206060818501528186518084526080860191508288019350845b81811015620004c45784516001600160a01b0316835293830193918301916001016200049d565b505080935050505060ff83166040830152949350505050565b600082620004f957634e487b7160e01b81526012600452602481fd5b500490565b600060ff821660ff8416808210156200051b576200051b62000547565b90039392505050565b600060ff821660ff8114156200053e576200053e62000547565b60010192915050565b634e487b7160e01b600052601160045260246000fd5b634e487b7160e01b600052604160045260246000fd5b61405280620005836000396000f3fe608060405260043610620000e35760003560e01c80635358fbda11620000895780639b90249711620000605780639b902497146200027f578063bd7c573314620002cd578063c85501bb14620002f2578063fac7d40f146200030e57600080fd5b80635358fbda146200021257806354fd4d5014620002295780635c975abb146200025057600080fd5b806323d64d1c11620000be57806323d64d1c1462000183578063410d8d6114620001a8578063453c6d9714620001cd57600080fd5b806315c0f43d14620000e85780632079fb9a146200010f57806321425ee0146200015e575b600080fd5b348015620000f557600080fd5b506200010d62000107366004620024fb565b62000333565b005b3480156200011c57600080fd5b50620001346200012e366004620022ac565b62000593565b60405173ffffffffffffffffffffffffffffffffffffffff90911681526020015b60405180910390f35b3480156200016b57600080fd5b506200010d6200017d3660046200219f565b620005cb565b3480156200019057600080fd5b506200010d620001a23660046200248e565b6200079e565b348015620001b557600080fd5b506200010d620001c7366004620022c5565b62000a04565b348015620001da57600080fd5b5062000201620001ec36600462002182565b60056020526000908152604090205460ff1681565b604051901515815260200162000155565b6200010d62000223366004620022ac565b62000c0c565b3480156200023657600080fd5b506200024160025481565b60405190815260200162000155565b3480156200025d57600080fd5b506004546200026c9060ff1681565b60405160ff909116815260200162000155565b3480156200028c57600080fd5b50620002b56200029e366004620022ac565b60009081526003602052604090205460ff16904390565b60408051921515835260208301919091520162000155565b348015620002da57600080fd5b506200010d620002ec366004620021d4565b62000cfd565b348015620002ff57600080fd5b506001546200026c9060ff1681565b3480156200031b57600080fd5b506200010d6200032d366004620023c9565b62000e2f565b600454600216156200038c5760405162461bcd60e51b815260206004820152601660248201527f7769746864726177616c7320617265207061757365640000000000000000000060448201526064015b60405180910390fd5b6200044c6002547f1e95e53df4c2d032707d451e79f584110870069dc084a4593320f2bfd296d51187604051602001620003c99392919062002786565b604080517fffffffffffffffffffffffffffffffffffffffffffffffffffffffffffffffe0818403018152919052805160209182012090873590880135620004128789620028db565b86868080602002602001604051908101604052809392919081815260200183836020028082843760009201919091525062000fbd92505050565b7fcd6ac346191b4b7531743e58f243dd4d350a52a9186641c1e5eac22b95aaedbe85356000620004836060890160408a0162002182565b6040805193845273ffffffffffffffffffffffffffffffffffffffff92831660208501529116908201526060808801359082015260800160405180910390a16000620004d6606087016040880162002182565b73ffffffffffffffffffffffffffffffffffffffff16866060013560405160006040518083038185875af1925050503d806000811462000533576040519150601f19603f3d011682016040523d82523d6000602084013e62000538565b606091505b50509050806200058b5760405162461bcd60e51b815260206004820152601360248201527f455448207472616e73666572206661696c656400000000000000000000000000604482015260640162000383565b505050505050565b60008181548110620005a457600080fd5b60009182526020909120015473ffffffffffffffffffffffffffffffffffffffff16905081565b60045460011615620006205760405162461bcd60e51b815260206004820152601360248201527f6465706f73697473206172652070617573656400000000000000000000000000604482015260640162000383565b60008111620006725760405162461bcd60e51b815260206004820152601660248201527f6465706f73697420616d6f756e74206973207a65726f00000000000000000000604482015260640162000383565b6040805173ffffffffffffffffffffffffffffffffffffffff85168152336020820152908101839052606081018290527fdcbc1c05240f31ff3ad067ef1ee35ce4997762752e3a095284754544f4c709d79060800160405180910390a173ffffffffffffffffffffffffffffffffffffffff831660009081526005602052604090205460ff16156200078b576040517f9dc29fac0000000000000000000000000000000000000000000000000000000081523360048201526024810182905273ffffffffffffffffffffffffffffffffffffffff841690639dc29fac90604401600060405180830381600087803b1580156200076d57600080fd5b505af115801562000782573d6000803e3d6000fd5b50505050505050565b6200079983333084620010b3565b505050565b60045460021615620007f35760405162461bcd60e51b815260206004820152601660248201527f7769746864726177616c73206172652070617573656400000000000000000000604482015260640162000383565b620008306002547f5ae63e664766ed63ceb860dbffc0f7aa0ccb76f90368617bfca90bc294e6ad0a87604051602001620003c99392919062002710565b7fcd6ac346191b4b7531743e58f243dd4d350a52a9186641c1e5eac22b95aaedbe853562000865608088016060890162002182565b620008776060890160408a0162002182565b6040805193845273ffffffffffffffffffffffffffffffffffffffff928316602085015291169082015260808088013560608301520160405180910390a160056000620008cb608088016060890162002182565b73ffffffffffffffffffffffffffffffffffffffff16815260208101919091526040016000205460ff1615620009ca576200090d608086016060870162002182565b73ffffffffffffffffffffffffffffffffffffffff166340c10f196200093a606088016040890162002182565b6040517fffffffff0000000000000000000000000000000000000000000000000000000060e084901b16815273ffffffffffffffffffffffffffffffffffffffff909116600482015260808801356024820152604401600060405180830381600087803b158015620009ab57600080fd5b505af1158015620009c0573d6000803e3d6000fd5b50505050620009fd565b620009fd620009e0608087016060880162002182565b620009f2606088016040890162002182565b876080013562001197565b5050505050565b60025485516020808801518051908201206040808a01518051908401208151808501969096527faef4579dd92a53d7dbd6c9b1b41126feb8e34b1cf830a44ed7c8cb23eecf16fe8683015260ff9094166060860152608085019190915260a0808501939093528051808503909301835260c0909301909252805191012062000acc8162000a928688620028db565b858580806020026020016040519081016040528093929190818152602001838360200280828437600092019190915250620011ef92505050565b85516020808801518051908201206040808a0151805190840120815160ff909516938501939093528301526060820152600090608001604051602081830303815290604052805190602001209050600081886020015189604001518a6000015160405162000b3a9062001fbc565b62000b4893929190620025e7565b8190604051809103906000f590508015801562000b69573d6000803e3d6000fd5b5060405173ffffffffffffffffffffffffffffffffffffffff821681529091507fa4dfd59983ab499bfeddc2f42db87b2c7e274c8c227df1b705c0139d9f7ca3f39060200160405180910390a173ffffffffffffffffffffffffffffffffffffffff16600090815260056020526040902080547fffffffffffffffffffffffffffffffffffffffffffffffffffffffffffffff0016600117905550505050505050565b6004546001161562000c615760405162461bcd60e51b815260206004820152601360248201527f6465706f73697473206172652070617573656400000000000000000000000000604482015260640162000383565b6000341162000cb35760405162461bcd60e51b815260206004820152601660248201527f6465706f73697420616d6f756e74206973207a65726f00000000000000000000604482015260640162000383565b60408051600081523360208201529081018290523460608201527fdcbc1c05240f31ff3ad067ef1ee35ce4997762752e3a095284754544f4c709d79060800160405180910390a150565b600060026000815462000d10906200299e565b91829055509050600062000d266001836200289b565b7ffbdd2ed7a0de0d96b5b1b51e448ab000225344c91ecdfdab284a1e20cacc2ade8a8a8a60405160200162000d6095949392919062002695565b604080517fffffffffffffffffffffffffffffffffffffffffffffffffffffffffffffffe08184030181529190528051602090910120905062000de38162000da98789620028db565b868680806020026020016040519081016040528093929190818152602001838360200280828437600092019190915250620011ef92505050565b62000e24828a8a808060200260200160405190810160405280939291908181526020018383602002808284376000920191909152508c925062001526915050565b505050505050505050565b8451600360ff909116111562000e885760405162461bcd60e51b815260206004820152601460248201527f696e76616c6964207061757365642076616c7565000000000000000000000000604482015260640162000383565b600254604080516020808201939093527f9f1ebbe0ae4684fc6fc6aabee82d531b28b4a47b73438dc30b42dab06208eb5d81830152875160ff16606082015291870151608083015286015160a082015260009060c00160405160208183030381529060405280519060200120905062000f4a8182886040015188889062000f109190620028db565b87878080602002602001604051908101604052809392919081815260200183836020028082843760009201919091525062000fbd92505050565b855160405160ff90911681527f9a0d3d5e378f6c06261926f8d2c566764cc506766d4cf6535cb64d9f831fa3109060200160405180910390a150509251600480547fffffffffffffffffffffffffffffffffffffffffffffffffffffffffffffff001660ff909216919091179055505050565b62000fca858383620011ef565b60008481526003602052604090205460ff16156200102b5760405162461bcd60e51b815260206004820152601c60248201527f7265717565737420697320616c72656164792066756c66696c6c656400000000604482015260640162000383565b600084815260036020526040902080547fffffffffffffffffffffffffffffffffffffffffffffffffffffffffffffff00166001179055428311620009fd5760405162461bcd60e51b815260206004820152601260248201527f7265717565737420697320657870697265640000000000000000000000000000604482015260640162000383565b60405173ffffffffffffffffffffffffffffffffffffffff80851660248301528316604482015260648101829052620011919085907f23b872dd00000000000000000000000000000000000000000000000000000000906084015b604080517fffffffffffffffffffffffffffffffffffffffffffffffffffffffffffffffe08184030181529190526020810180517bffffffffffffffffffffffffffffffffffffffffffffffffffffffff167fffffffff000000000000000000000000000000000000000000000000000000009093169290921790915262001845565b50505050565b60405173ffffffffffffffffffffffffffffffffffffffff8316602482015260448101829052620007999084907fa9059cbb00000000000000000000000000000000000000000000000000000000906064016200110e565b8051825114620012685760405162461bcd60e51b815260206004820152603560248201527f6e756d626572206f66207369676e61747572657320646f6573206e6f7420657160448201527f75616c206e756d626572206f6620696e64657865730000000000000000000000606482015260840162000383565b600154825160ff9091161115620012c25760405162461bcd60e51b815260206004820152601560248201527f6e6f7420656e6f756768207369676e6174757265730000000000000000000000604482015260640162000383565b6000805b83518160ff161015620009fd576000838260ff168151811062001312577f4e487b7100000000000000000000000000000000000000000000000000000000600052603260045260246000fd5b602002602001015190506000808260ff16815481106200135b577f4e487b7100000000000000000000000000000000000000000000000000000000600052603260045260246000fd5b60009182526020909120015473ffffffffffffffffffffffffffffffffffffffff16905060ff831615806200139557508360ff168260ff16115b620013e35760405162461bcd60e51b815260206004820152601f60248201527f7369676e617475726573206e6f7420736f72746564206279207369676e657200604482015260640162000383565b60006200148c62001441896040517f19457468657265756d205369676e6564204d6573736167653a0a3332000000006020820152603c8101829052600090605c01604051602081830303815290604052805190602001209050919050565b888660ff16815181106200147e577f4e487b7100000000000000000000000000000000000000000000000000000000600052603260045260246000fd5b60200260200101516200193e565b90508173ffffffffffffffffffffffffffffffffffffffff168173ffffffffffffffffffffffffffffffffffffffff16146200150b5760405162461bcd60e51b815260206004820152601860248201527f7369676e617475726520646f6573206e6f74206d617463680000000000000000604482015260640162000383565b509092508190506200151d81620029da565b915050620012c6565b6000825111620015795760405162461bcd60e51b815260206004820152600f60248201527f746f6f20666577207369676e6572730000000000000000000000000000000000604482015260640162000383565b610100825110620015cd5760405162461bcd60e51b815260206004820152601060248201527f746f6f206d616e79207369676e65727300000000000000000000000000000000604482015260640162000383565b60028251620015dd919062002861565b8160ff1611620016305760405162461bcd60e51b815260206004820152601860248201527f6d696e207468726573686f6c6420697320746f6f206c6f770000000000000000604482015260640162000383565b81518160ff161115620016865760405162461bcd60e51b815260206004820152601960248201527f6d696e207468726573686f6c6420697320746f6f206869676800000000000000604482015260640162000383565b60015b82518160ff161015620017be57828160ff1681518110620016d3577f4e487b7100000000000000000000000000000000000000000000000000000000600052603260045260246000fd5b602002602001015173ffffffffffffffffffffffffffffffffffffffff1683600183620017019190620028b5565b60ff16815181106200173c577f4e487b7100000000000000000000000000000000000000000000000000000000600052603260045260246000fd5b602002602001015173ffffffffffffffffffffffffffffffffffffffff1610620017a95760405162461bcd60e51b815260206004820152601260248201527f7369676e657273206e6f7420736f727465640000000000000000000000000000604482015260640162000383565b80620017b581620029da565b91505062001689565b508151620017d490600090602085019062001fca565b50600180547fffffffffffffffffffffffffffffffffffffffffffffffffffffffffffffff001660ff83161790556040517f5d291071bb8cb02c25b56ac7a404864bbf1b404850664208dc12952b59017a8a90620018389085908590859062002624565b60405180910390a1505050565b6000620018a9826040518060400160405280602081526020017f5361666545524332303a206c6f772d6c6576656c2063616c6c206661696c65648152508573ffffffffffffffffffffffffffffffffffffffff16620019669092919063ffffffff16565b805190915015620007995780806020019051810190620018ca91906200228a565b620007995760405162461bcd60e51b815260206004820152602a60248201527f5361666545524332303a204552433230206f7065726174696f6e20646964206e60448201527f6f74207375636365656400000000000000000000000000000000000000000000606482015260840162000383565b60008060006200194f858562001981565b915091506200195e81620019f9565b509392505050565b606062001977848460008562001cbe565b90505b9392505050565b600080825160411415620019bc5760208301516040840151606085015160001a620019af8782858562001e14565b94509450505050620019f2565b825160401415620019ea5760208301516040840151620019de86838362001f34565b935093505050620019f2565b506000905060025b9250929050565b600081600481111562001a35577f4e487b7100000000000000000000000000000000000000000000000000000000600052602160045260246000fd5b141562001a3f5750565b600181600481111562001a7b577f4e487b7100000000000000000000000000000000000000000000000000000000600052602160045260246000fd5b141562001acb5760405162461bcd60e51b815260206004820152601860248201527f45434453413a20696e76616c6964207369676e61747572650000000000000000604482015260640162000383565b600281600481111562001b07577f4e487b7100000000000000000000000000000000000000000000000000000000600052602160045260246000fd5b141562001b575760405162461bcd60e51b815260206004820152601f60248201527f45434453413a20696e76616c6964207369676e6174757265206c656e67746800604482015260640162000383565b600381600481111562001b93577f4e487b7100000000000000000000000000000000000000000000000000000000600052602160045260246000fd5b141562001c095760405162461bcd60e51b815260206004820152602260248201527f45434453413a20696e76616c6964207369676e6174757265202773272076616c60448201527f7565000000000000000000000000000000000000000000000000000000000000606482015260840162000383565b600481600481111562001c45577f4e487b7100000000000000000000000000000000000000000000000000000000600052602160045260246000fd5b141562001cbb5760405162461bcd60e51b815260206004820152602260248201527f45434453413a20696e76616c6964207369676e6174757265202776272076616c60448201527f7565000000000000000000000000000000000000000000000000000000000000606482015260840162000383565b50565b60608247101562001d385760405162461bcd60e51b815260206004820152602660248201527f416464726573733a20696e73756666696369656e742062616c616e636520666f60448201527f722063616c6c0000000000000000000000000000000000000000000000000000606482015260840162000383565b843b62001d885760405162461bcd60e51b815260206004820152601d60248201527f416464726573733a2063616c6c20746f206e6f6e2d636f6e7472616374000000604482015260640162000383565b6000808673ffffffffffffffffffffffffffffffffffffffff16858760405162001db39190620025b4565b60006040518083038185875af1925050503d806000811462001df2576040519150601f19603f3d011682016040523d82523d6000602084013e62001df7565b606091505b509150915062001e0982828662001f7e565b979650505050505050565b6000807f7fffffffffffffffffffffffffffffff5d576e7357a4501ddfe92f46681b20a083111562001e4d575060009050600362001f2b565b8460ff16601b1415801562001e6657508460ff16601c14155b1562001e79575060009050600462001f2b565b6040805160008082526020820180845289905260ff881692820192909252606081018690526080810185905260019060a0016020604051602081039080840390855afa15801562001ece573d6000803e3d6000fd5b50506040517fffffffffffffffffffffffffffffffffffffffffffffffffffffffffffffffe0015191505073ffffffffffffffffffffffffffffffffffffffff811662001f245760006001925092505062001f2b565b9150600090505b94509492505050565b6000807f7fffffffffffffffffffffffffffffffffffffffffffffffffffffffffffffff831660ff84901c601b0162001f708782888562001e14565b935093505050935093915050565b6060831562001f8f5750816200197a565b82511562001fa05782518084602001fd5b8160405162461bcd60e51b8152600401620003839190620025d2565b6115c18062002a5c83390190565b82805482825590600052602060002090810192821562002047579160200282015b828111156200204757825182547fffffffffffffffffffffffff00000000000000000000000000000000000000001673ffffffffffffffffffffffffffffffffffffffff90911617825560209092019160019091019062001feb565b506200205592915062002059565b5090565b5b808211156200205557600081556001016200205a565b803573ffffffffffffffffffffffffffffffffffffffff811681146200209557600080fd5b919050565b60008083601f840112620020ac578182fd5b50813567ffffffffffffffff811115620020c4578182fd5b6020830191508360208260051b8501011115620019f257600080fd5b600082601f830112620020f1578081fd5b813567ffffffffffffffff8111156200210e576200210e62002a2c565b6200214160207fffffffffffffffffffffffffffffffffffffffffffffffffffffffffffffffe0601f840116016200280f565b81815284602083860101111562002156578283fd5b816020850160208301379081016020019190915292915050565b803560ff811681146200209557600080fd5b60006020828403121562002194578081fd5b6200197a8262002070565b600080600060608486031215620021b4578182fd5b620021bf8462002070565b95602085013595506040909401359392505050565b60008060008060008060006080888a031215620021ef578283fd5b873567ffffffffffffffff8082111562002207578485fd5b620022158b838c016200209a565b90995097508791506200222b60208b0162002170565b965060408a013591508082111562002241578485fd5b6200224f8b838c016200209a565b909650945060608a013591508082111562002268578384fd5b50620022778a828b016200209a565b989b979a50959850939692959293505050565b6000602082840312156200229c578081fd5b815180151581146200197a578182fd5b600060208284031215620022be578081fd5b5035919050565b600080600080600060608688031215620022dd578081fd5b853567ffffffffffffffff80821115620022f5578283fd5b908701906060828a03121562002309578283fd5b62002313620027e3565b6200231e8362002170565b815260208301358281111562002332578485fd5b620023408b828601620020e0565b60208301525060408301358281111562002358578485fd5b620023668b828601620020e0565b6040830152509650602088013591508082111562002382578283fd5b6200239089838a016200209a565b90965094506040880135915080821115620023a9578283fd5b50620023b8888289016200209a565b969995985093965092949392505050565b600080600080600085870360a0811215620023e2578384fd5b6060811215620023f0578384fd5b506040516060810167ffffffffffffffff828210818311171562002418576200241862002a2c565b81604052620024278962002170565b83526020890135602084015260408901356040840152829750606089013592508083111562002454578586fd5b620024628a848b016200209a565b909750955060808901359250869150808311156200247e578384fd5b5050620023b8888289016200209a565b600080600080600085870360e0811215620024a7578384fd5b60a0811215620024b5578384fd5b5085945060a086013567ffffffffffffffff80821115620024d4578485fd5b620024e289838a016200209a565b909650945060c0880135915080821115620023a9578283fd5b600080600080600085870360c081121562002514578384fd5b608081121562002522578384fd5b50859450608086013567ffffffffffffffff8082111562002541578485fd5b6200254f89838a016200209a565b909650945060a0880135915080821115620023a9578283fd5b60008151808452620025828160208601602086016200296f565b601f017fffffffffffffffffffffffffffffffffffffffffffffffffffffffffffffffe0169290920160200192915050565b60008251620025c88184602087016200296f565b9190910192915050565b6020815260006200197a602083018462002568565b606081526000620025fc606083018662002568565b828103602084015262002610818662002568565b91505060ff83166040830152949350505050565b60006060820185835260206060818501528186518084526080860191508288019350845b818110156200267c57845173ffffffffffffffffffffffffffffffffffffffff168352938301939183019160010162002648565b505080935050505060ff83166040830152949350505050565b85815260208082018690526080604083018190528201849052600090859060a08401835b87811015620026f65773ffffffffffffffffffffffffffffffffffffffff620026e28562002070565b1682529282019290820190600101620026b9565b5080935050505060ff831660608301529695505050505050565b600060e0820190508482528360208301528235604083015260208301356060830152620027406040840162002070565b73ffffffffffffffffffffffffffffffffffffffff8082166080850152806200276c6060870162002070565b1660a08501525050608083013560c0830152949350505050565b600060c082019050848252836020830152823560408301526020830135606083015273ffffffffffffffffffffffffffffffffffffffff620027cb6040850162002070565b166080830152606083013560a0830152949350505050565b6040516060810167ffffffffffffffff8111828210171562002809576200280962002a2c565b60405290565b604051601f82017fffffffffffffffffffffffffffffffffffffffffffffffffffffffffffffffe016810167ffffffffffffffff8111828210171562002859576200285962002a2c565b604052919050565b60008262002896577f4e487b710000000000000000000000000000000000000000000000000000000081526012600452602481fd5b500490565b600082821015620028b057620028b0620029fd565b500390565b600060ff821660ff841680821015620028d257620028d2620029fd565b90039392505050565b600067ffffffffffffffff80841115620028f957620028f962002a2c565b8360051b60206200290c8183016200280f565b868152818101908636858201111562002923578687fd5b8694505b8885101562002963578035868111156200293f578788fd5b6200294d36828b01620020e0565b8452506001949094019391830191830162002927565b50979650505050505050565b60005b838110156200298c57818101518382015260200162002972565b83811115620011915750506000910152565b60007fffffffffffffffffffffffffffffffffffffffffffffffffffffffffffffffff821415620029d357620029d3620029fd565b5060010190565b600060ff821660ff811415620029f457620029f4620029fd565b60010192915050565b7f4e487b7100000000000000000000000000000000000000000000000000000000600052601160045260246000fd5b7f4e487b7100000000000000000000000000000000000000000000000000000000600052604160045260246000fdfe60806040523480156200001157600080fd5b50604051620015c1380380620015c1833981016040819052620000349162000256565b8251839083906200004d906003906020850190620000fd565b50805162000063906004906020840190620000fd565b505050620000806200007a620000a760201b60201c565b620000ab565b6005805460ff909216600160a01b0260ff60a01b19909216919091179055506200032a9050565b3390565b600580546001600160a01b038381166001600160a01b0319831681179093556040519116919082907f8be0079c531659141344cd1fd0a4f28419497f9722a3daafe3b4186f6b6457e090600090a35050565b8280546200010b90620002d7565b90600052602060002090601f0160209004810192826200012f57600085556200017a565b82601f106200014a57805160ff19168380011785556200017a565b828001600101855582156200017a579182015b828111156200017a5782518255916020019190600101906200015d565b50620001889291506200018c565b5090565b5b808211156200018857600081556001016200018d565b600082601f830112620001b4578081fd5b81516001600160401b0380821115620001d157620001d162000314565b604051601f8301601f19908116603f01168101908282118183101715620001fc57620001fc62000314565b8160405283815260209250868385880101111562000218578485fd5b8491505b838210156200023b57858201830151818301840152908201906200021c565b838211156200024c57848385830101525b9695505050505050565b6000806000606084860312156200026b578283fd5b83516001600160401b038082111562000282578485fd5b6200029087838801620001a3565b94506020860151915080821115620002a6578384fd5b50620002b586828701620001a3565b925050604084015160ff81168114620002cc578182fd5b809150509250925092565b600181811c90821680620002ec57607f821691505b602082108114156200030e57634e487b7160e01b600052602260045260246000fd5b50919050565b634e487b7160e01b600052604160045260246000fd5b611287806200033a6000396000f3fe608060405234801561001057600080fd5b50600436106101005760003560e01c8063715018a611610097578063a457c2d711610066578063a457c2d714610244578063a9059cbb14610257578063dd62ed3e1461026a578063f2fde38b146102b057600080fd5b8063715018a6146101f95780638da5cb5b1461020157806395d89b41146102295780639dc29fac1461023157600080fd5b8063313ce567116100d3578063313ce5671461016b578063395093511461019b57806340c10f19146101ae57806370a08231146101c357600080fd5b806306fdde0314610105578063095ea7b31461012357806318160ddd1461014657806323b872dd14610158575b600080fd5b61010d6102c3565b60405161011a919061112e565b60405180910390f35b610136610131366004611105565b610355565b604051901515815260200161011a565b6002545b60405190815260200161011a565b6101366101663660046110ca565b61036b565b60055474010000000000000000000000000000000000000000900460ff1660405160ff909116815260200161011a565b6101366101a9366004611105565b610456565b6101c16101bc366004611105565b61049f565b005b61014a6101d1366004611077565b73ffffffffffffffffffffffffffffffffffffffff1660009081526020819052604090205490565b6101c161052e565b60055460405173ffffffffffffffffffffffffffffffffffffffff909116815260200161011a565b61010d6105bb565b6101c161023f366004611105565b6105ca565b610136610252366004611105565b610655565b610136610265366004611105565b61072d565b61014a610278366004611098565b73ffffffffffffffffffffffffffffffffffffffff918216600090815260016020908152604080832093909416825291909152205490565b6101c16102be366004611077565b61073a565b6060600380546102d2906111ce565b80601f01602080910402602001604051908101604052809291908181526020018280546102fe906111ce565b801561034b5780601f106103205761010080835404028352916020019161034b565b820191906000526020600020905b81548152906001019060200180831161032e57829003601f168201915b5050505050905090565b600061036233848461086a565b50600192915050565b6000610378848484610a1e565b73ffffffffffffffffffffffffffffffffffffffff841660009081526001602090815260408083203384529091529020548281101561043e576040517f08c379a000000000000000000000000000000000000000000000000000000000815260206004820152602860248201527f45524332303a207472616e7366657220616d6f756e742065786365656473206160448201527f6c6c6f77616e636500000000000000000000000000000000000000000000000060648201526084015b60405180910390fd5b61044b853385840361086a565b506001949350505050565b33600081815260016020908152604080832073ffffffffffffffffffffffffffffffffffffffff87168452909152812054909161036291859061049a90869061119f565b61086a565b60055473ffffffffffffffffffffffffffffffffffffffff163314610520576040517f08c379a000000000000000000000000000000000000000000000000000000000815260206004820181905260248201527f4f776e61626c653a2063616c6c6572206973206e6f7420746865206f776e65726044820152606401610435565b61052a8282610cd2565b5050565b60055473ffffffffffffffffffffffffffffffffffffffff1633146105af576040517f08c379a000000000000000000000000000000000000000000000000000000000815260206004820181905260248201527f4f776e61626c653a2063616c6c6572206973206e6f7420746865206f776e65726044820152606401610435565b6105b96000610df2565b565b6060600480546102d2906111ce565b60055473ffffffffffffffffffffffffffffffffffffffff16331461064b576040517f08c379a000000000000000000000000000000000000000000000000000000000815260206004820181905260248201527f4f776e61626c653a2063616c6c6572206973206e6f7420746865206f776e65726044820152606401610435565b61052a8282610e69565b33600090815260016020908152604080832073ffffffffffffffffffffffffffffffffffffffff8616845290915281205482811015610716576040517f08c379a000000000000000000000000000000000000000000000000000000000815260206004820152602560248201527f45524332303a2064656372656173656420616c6c6f77616e63652062656c6f7760448201527f207a65726f0000000000000000000000000000000000000000000000000000006064820152608401610435565b610723338585840361086a565b5060019392505050565b6000610362338484610a1e565b60055473ffffffffffffffffffffffffffffffffffffffff1633146107bb576040517f08c379a000000000000000000000000000000000000000000000000000000000815260206004820181905260248201527f4f776e61626c653a2063616c6c6572206973206e6f7420746865206f776e65726044820152606401610435565b73ffffffffffffffffffffffffffffffffffffffff811661085e576040517f08c379a000000000000000000000000000000000000000000000000000000000815260206004820152602660248201527f4f776e61626c653a206e6577206f776e657220697320746865207a65726f206160448201527f64647265737300000000000000000000000000000000000000000000000000006064820152608401610435565b61086781610df2565b50565b73ffffffffffffffffffffffffffffffffffffffff831661090c576040517f08c379a0000000000000000000000000000000000000000000000000000000008152602060048201526024808201527f45524332303a20617070726f76652066726f6d20746865207a65726f2061646460448201527f72657373000000000000000000000000000000000000000000000000000000006064820152608401610435565b73ffffffffffffffffffffffffffffffffffffffff82166109af576040517f08c379a000000000000000000000000000000000000000000000000000000000815260206004820152602260248201527f45524332303a20617070726f766520746f20746865207a65726f20616464726560448201527f73730000000000000000000000000000000000000000000000000000000000006064820152608401610435565b73ffffffffffffffffffffffffffffffffffffffff83811660008181526001602090815260408083209487168084529482529182902085905590518481527f8c5be1e5ebec7d5bd14f71427d1e84f3dd0314c0f7b2291e5b200ac8c7c3b92591015b60405180910390a3505050565b73ffffffffffffffffffffffffffffffffffffffff8316610ac1576040517f08c379a000000000000000000000000000000000000000000000000000000000815260206004820152602560248201527f45524332303a207472616e736665722066726f6d20746865207a65726f20616460448201527f64726573730000000000000000000000000000000000000000000000000000006064820152608401610435565b73ffffffffffffffffffffffffffffffffffffffff8216610b64576040517f08c379a000000000000000000000000000000000000000000000000000000000815260206004820152602360248201527f45524332303a207472616e7366657220746f20746865207a65726f206164647260448201527f65737300000000000000000000000000000000000000000000000000000000006064820152608401610435565b73ffffffffffffffffffffffffffffffffffffffff831660009081526020819052604090205481811015610c1a576040517f08c379a000000000000000000000000000000000000000000000000000000000815260206004820152602660248201527f45524332303a207472616e7366657220616d6f756e742065786365656473206260448201527f616c616e636500000000000000000000000000000000000000000000000000006064820152608401610435565b73ffffffffffffffffffffffffffffffffffffffff808516600090815260208190526040808220858503905591851681529081208054849290610c5e90849061119f565b925050819055508273ffffffffffffffffffffffffffffffffffffffff168473ffffffffffffffffffffffffffffffffffffffff167fddf252ad1be2c89b69c2b068fc378daa952ba7f163c4a11628f55a4df523b3ef84604051610cc491815260200190565b60405180910390a350505050565b73ffffffffffffffffffffffffffffffffffffffff8216610d4f576040517f08c379a000000000000000000000000000000000000000000000000000000000815260206004820152601f60248201527f45524332303a206d696e7420746f20746865207a65726f2061646472657373006044820152606401610435565b8060026000828254610d61919061119f565b909155505073ffffffffffffffffffffffffffffffffffffffff821660009081526020819052604081208054839290610d9b90849061119f565b909155505060405181815273ffffffffffffffffffffffffffffffffffffffff8316906000907fddf252ad1be2c89b69c2b068fc378daa952ba7f163c4a11628f55a4df523b3ef9060200160405180910390a35050565b6005805473ffffffffffffffffffffffffffffffffffffffff8381167fffffffffffffffffffffffff0000000000000000000000000000000000000000831681179093556040519116919082907f8be0079c531659141344cd1fd0a4f28419497f9722a3daafe3b4186f6b6457e090600090a35050565b73ffffffffffffffffffffffffffffffffffffffff8216610f0c576040517f08c379a000000000000000000000000000000000000000000000000000000000815260206004820152602160248201527f45524332303a206275726e2066726f6d20746865207a65726f2061646472657360448201527f73000000000000000000000000000000000000000000000000000000000000006064820152608401610435565b73ffffffffffffffffffffffffffffffffffffffff821660009081526020819052604090205481811015610fc2576040517f08c379a000000000000000000000000000000000000000000000000000000000815260206004820152602260248201527f45524332303a206275726e20616d6f756e7420657863656564732062616c616e60448201527f63650000000000000000000000000000000000000000000000000000000000006064820152608401610435565b73ffffffffffffffffffffffffffffffffffffffff83166000908152602081905260408120838303905560028054849290610ffe9084906111b7565b909155505060405182815260009073ffffffffffffffffffffffffffffffffffffffff8516907fddf252ad1be2c89b69c2b068fc378daa952ba7f163c4a11628f55a4df523b3ef90602001610a11565b803573ffffffffffffffffffffffffffffffffffffffff8116811461107257600080fd5b919050565b600060208284031215611088578081fd5b6110918261104e565b9392505050565b600080604083850312156110aa578081fd5b6110b38361104e565b91506110c16020840161104e565b90509250929050565b6000806000606084860312156110de578081fd5b6110e78461104e565b92506110f56020850161104e565b9150604084013590509250925092565b60008060408385031215611117578182fd5b6111208361104e565b946020939093013593505050565b6000602080835283518082850152825b8181101561115a5785810183015185820160400152820161113e565b8181111561116b5783604083870101525b50601f017fffffffffffffffffffffffffffffffffffffffffffffffffffffffffffffffe016929092016040019392505050565b600082198211156111b2576111b2611222565b500190565b6000828210156111c9576111c9611222565b500390565b600181811c908216806111e257607f821691505b6020821081141561121c577f4e487b7100000000000000000000000000000000000000000000000000000000600052602260045260246000fd5b50919050565b7f4e487b7100000000000000000000000000000000000000000000000000000000600052601160045260246000fdfea2646970667358221220c2846d0e3fbadc66c785523bf029d3e3f7d86a827ff181c39de5ab7b3ae5603364736f6c63430008040033a26469706673582212209629eb030d562e27c7313dae96a84e984f21b511df03d6b79533e3001280ee0b64736f6c63430008040033",
  "linkReferences": {},
  "deployedLinkReferences": {}
}